{
  "address": "0x57ef7d9BB8532E7E4179dC2ce9097783470c4833",
  "abi": [
    {
      "inputs": [
        {
          "internalType": "contract IERC20MintBurnable",
          "name": "_token",
          "type": "address"
        },
        {
          "internalType": "address",
          "name": "_admin",
          "type": "address"
        }
      ],
      "stateMutability": "nonpayable",
      "type": "constructor"
    },
    {
      "inputs": [],
      "name": "ArraysAreNotEqualLength",
      "type": "error"
    },
    {
      "inputs": [],
      "name": "NotEnoughWithdrawableTokens",
      "type": "error"
    },
    {
      "inputs": [
        {
          "internalType": "address",
          "name": "owner",
          "type": "address"
        }
      ],
      "name": "OwnableInvalidOwner",
      "type": "error"
    },
    {
      "inputs": [
        {
          "internalType": "address",
          "name": "account",
          "type": "address"
        }
      ],
      "name": "OwnableUnauthorizedAccount",
      "type": "error"
    },
    {
      "anonymous": false,
      "inputs": [
        {
          "indexed": true,
          "internalType": "address",
          "name": "previousOwner",
          "type": "address"
        },
        {
          "indexed": true,
          "internalType": "address",
          "name": "newOwner",
          "type": "address"
        }
      ],
      "name": "OwnershipTransferred",
      "type": "event"
    },
    {
      "anonymous": false,
      "inputs": [
        {
          "indexed": true,
          "internalType": "address",
          "name": "acount",
          "type": "address"
        },
        {
          "indexed": false,
          "internalType": "uint256",
          "name": "amount",
          "type": "uint256"
        }
      ],
      "name": "TokensStaked",
      "type": "event"
    },
    {
      "anonymous": false,
      "inputs": [
        {
          "indexed": true,
          "internalType": "address",
          "name": "acount",
          "type": "address"
        },
        {
          "indexed": false,
          "internalType": "uint256",
          "name": "amount",
          "type": "uint256"
        }
      ],
      "name": "TokensWithdrawable",
      "type": "event"
    },
    {
      "anonymous": false,
      "inputs": [
        {
          "indexed": true,
          "internalType": "address",
          "name": "acount",
          "type": "address"
        },
        {
          "indexed": false,
          "internalType": "uint256",
          "name": "amount",
          "type": "uint256"
        }
      ],
      "name": "TokensWithdrawn",
      "type": "event"
    },
    {
      "inputs": [
        {
          "internalType": "address[]",
          "name": "_accounts",
          "type": "address[]"
        },
        {
          "internalType": "uint256[]",
          "name": "_amounts",
          "type": "uint256[]"
        }
      ],
      "name": "addWithdrawable",
      "outputs": [],
      "stateMutability": "nonpayable",
      "type": "function"
    },
    {
      "inputs": [],
      "name": "owner",
      "outputs": [
        {
          "internalType": "address",
          "name": "",
          "type": "address"
        }
      ],
      "stateMutability": "view",
      "type": "function"
    },
    {
      "inputs": [],
      "name": "renounceOwnership",
      "outputs": [],
      "stateMutability": "nonpayable",
      "type": "function"
    },
    {
      "inputs": [
        {
          "internalType": "uint256",
          "name": "_amount",
          "type": "uint256"
        }
      ],
      "name": "stake",
      "outputs": [],
      "stateMutability": "nonpayable",
      "type": "function"
    },
    {
      "inputs": [
        {
          "internalType": "address",
          "name": "newOwner",
          "type": "address"
        }
      ],
      "name": "transferOwnership",
      "outputs": [],
      "stateMutability": "nonpayable",
      "type": "function"
    },
    {
      "inputs": [
        {
          "internalType": "uint256",
          "name": "_amount",
          "type": "uint256"
        }
      ],
      "name": "withdraw",
      "outputs": [],
      "stateMutability": "nonpayable",
      "type": "function"
    }
  ],
  "transactionHash": "0xb7e6d28bc8e5a7bc60d74281bbf5b5698f95bcc6303120939c087560ec60c822",
  "args": [
    "0x340E7B68B20C004Be6579D165b40950c60464570",
    "0xaF7E68bCb2Fc7295492A00177f14F59B92814e70"
  ],
  "numDeployments": 1,
  "solcInputHash": "b4258d82265b63b629148a0866fdb850",
  "bytecode": "0x60a060405234801561001057600080fd5b5060405161098c38038061098c83398101604081905261002f916100e2565b806001600160a01b03811661005e57604051631e4fbdf760e01b81526000600482015260240160405180910390fd5b6100678161007a565b50506001600160a01b031660805261011c565b600080546001600160a01b038381166001600160a01b0319831681178455604051919092169283917f8be0079c531659141344cd1fd0a4f28419497f9722a3daafe3b4186f6b6457e09190a35050565b6001600160a01b03811681146100df57600080fd5b50565b600080604083850312156100f557600080fd5b8251610100816100ca565b6020840151909250610111816100ca565b809150509250929050565b6080516108476101456000396000818161017701528181610270015261032201526108476000f3fe608060405234801561001057600080fd5b50600436106100725760003560e01c8063a694fc3a11610050578063a694fc3a146100c0578063b5502573146100d3578063f2fde38b146100e657600080fd5b80632e1a7d4d14610077578063715018a61461008c5780638da5cb5b14610094575b600080fd5b61008a610085366004610672565b6100f9565b005b61008a610221565b6000546040805173ffffffffffffffffffffffffffffffffffffffff9092168252519081900360200190f35b61008a6100ce366004610672565b610235565b61008a6100e13660046106d7565b6103c5565b61008a6100f4366004610743565b610541565b33600090815260016020526040902054811115610142576040517fb062d7f600000000000000000000000000000000000000000000000000000000815260040160405180910390fd5b6040517f40c10f19000000000000000000000000000000000000000000000000000000008152336004820152602481018290527f000000000000000000000000000000000000000000000000000000000000000073ffffffffffffffffffffffffffffffffffffffff16906340c10f1990604401600060405180830381600087803b1580156101d057600080fd5b505af11580156101e4573d6000803e3d6000fd5b50506040518381523392507f6352c5382c4a4578e712449ca65e83cdb392d045dfcf1cad9615189db2da244b91506020015b60405180910390a250565b6102296105aa565b61023360006105fd565b565b6040517f23b872dd000000000000000000000000000000000000000000000000000000008152336004820152306024820152604481018290527f000000000000000000000000000000000000000000000000000000000000000073ffffffffffffffffffffffffffffffffffffffff16906323b872dd906064016020604051808303816000875af11580156102ce573d6000803e3d6000fd5b505050506040513d601f19601f820116820180604052508101906102f29190610780565b506040517f42966c68000000000000000000000000000000000000000000000000000000008152600481018290527f000000000000000000000000000000000000000000000000000000000000000073ffffffffffffffffffffffffffffffffffffffff16906342966c6890602401600060405180830381600087803b15801561037b57600080fd5b505af115801561038f573d6000803e3d6000fd5b50506040518381523392507fb539ca1e5c8d398ddf1c41c30166f33404941683be4683319b57669a93dad4ef9150602001610216565b6103cd6105aa565b828114610406576040517fb57029f600000000000000000000000000000000000000000000000000000000815260040160405180910390fd5b60005b8381101561053a57828282818110610423576104236107a2565b9050602002013560016000878785818110610440576104406107a2565b90506020020160208101906104559190610743565b73ffffffffffffffffffffffffffffffffffffffff1673ffffffffffffffffffffffffffffffffffffffff168152602001908152602001600020600082825461049e91906107d1565b9091555085905084828181106104b6576104b66107a2565b90506020020160208101906104cb9190610743565b73ffffffffffffffffffffffffffffffffffffffff167fb25b424ab14b1b3b1bedc8b2057826c875e4b7c9f4b2e7f1a36252345f19f1b1848484818110610514576105146107a2565b9050602002013560405161052a91815260200190565b60405180910390a2600101610409565b5050505050565b6105496105aa565b73ffffffffffffffffffffffffffffffffffffffff811661059e576040517f1e4fbdf7000000000000000000000000000000000000000000000000000000008152600060048201526024015b60405180910390fd5b6105a7816105fd565b50565b60005473ffffffffffffffffffffffffffffffffffffffff163314610233576040517f118cdaa7000000000000000000000000000000000000000000000000000000008152336004820152602401610595565b6000805473ffffffffffffffffffffffffffffffffffffffff8381167fffffffffffffffffffffffff0000000000000000000000000000000000000000831681178455604051919092169283917f8be0079c531659141344cd1fd0a4f28419497f9722a3daafe3b4186f6b6457e09190a35050565b60006020828403121561068457600080fd5b5035919050565b60008083601f84011261069d57600080fd5b50813567ffffffffffffffff8111156106b557600080fd5b6020830191508360208260051b85010111156106d057600080fd5b9250929050565b600080600080604085870312156106ed57600080fd5b843567ffffffffffffffff8082111561070557600080fd5b6107118883890161068b565b9096509450602087013591508082111561072a57600080fd5b506107378782880161068b565b95989497509550505050565b60006020828403121561075557600080fd5b813573ffffffffffffffffffffffffffffffffffffffff8116811461077957600080fd5b9392505050565b60006020828403121561079257600080fd5b8151801515811461077957600080fd5b7f4e487b7100000000000000000000000000000000000000000000000000000000600052603260045260246000fd5b8082018082111561080b577f4e487b7100000000000000000000000000000000000000000000000000000000600052601160045260246000fd5b9291505056fea26469706673582212206ab248ed1f8fad12c80c6ea4bc95fbe8d130746f39129c9163289ca0ea38756664736f6c63430008150033",
  "devdoc": {
    "errors": {
      "OwnableInvalidOwner(address)": [
        {
          "details": "The owner is not a valid owner account. (eg. `address(0)`)"
        }
      ],
      "OwnableUnauthorizedAccount(address)": [
        {
          "details": "The caller account is not authorized to perform an operation."
        }
      ]
    },
    "kind": "dev",
    "methods": {
      "owner()": {
        "details": "Returns the address of the current owner."
      },
      "renounceOwnership()": {
        "details": "Leaves the contract without owner. It will not be possible to call `onlyOwner` functions. Can only be called by the current owner. NOTE: Renouncing ownership will leave the contract without an owner, thereby disabling any functionality that is only available to the owner."
      },
      "transferOwnership(address)": {
        "details": "Transfers ownership of the contract to a new account (`newOwner`). Can only be called by the current owner."
      }
    },
    "version": 1
  },
  "userdoc": {
    "kind": "user",
    "methods": {},
    "version": 1
  },
  "storageLayout": {
    "storage": [
      {
        "astId": 387,
        "contract": "contracts/OpenStaking.sol:OpenStaking",
        "label": "_owner",
        "offset": 0,
        "slot": "0",
        "type": "t_address"
      },
      {
        "astId": 8370,
        "contract": "contracts/OpenStaking.sol:OpenStaking",
        "label": "withdrawable",
        "offset": 0,
        "slot": "1",
        "type": "t_mapping(t_address,t_uint256)"
      }
    ],
    "types": {
      "t_address": {
        "encoding": "inplace",
        "label": "address",
        "numberOfBytes": "20"
      },
      "t_mapping(t_address,t_uint256)": {
        "encoding": "mapping",
        "key": "t_address",
        "label": "mapping(address => uint256)",
        "numberOfBytes": "32",
        "value": "t_uint256"
      },
      "t_uint256": {
        "encoding": "inplace",
        "label": "uint256",
        "numberOfBytes": "32"
      }
    }
  }
}